{
  "_format": "hh-sol-artifact-1",
  "contractName": "Tender",
  "sourceName": "contracts/Tender.sol",
  "abi": [
    {
      "inputs": [],
      "stateMutability": "nonpayable",
      "type": "constructor"
    },
    {
      "inputs": [
        {
          "internalType": "uint256",
          "name": "",
          "type": "uint256"
        }
      ],
      "name": "allTenders",
      "outputs": [
        {
          "internalType": "string",
          "name": "title",
          "type": "string"
        },
        {
          "internalType": "string",
          "name": "tenderType",
          "type": "string"
        },
        {
          "internalType": "uint256",
          "name": "quantity",
          "type": "uint256"
        },
        {
          "internalType": "uint256",
          "name": "budget",
          "type": "uint256"
        },
        {
          "internalType": "string",
          "name": "description",
          "type": "string"
        },
        {
          "internalType": "uint256",
          "name": "expiryDate",
          "type": "uint256"
        },
        {
          "internalType": "address",
          "name": "createdBy",
          "type": "address"
        }
      ],
      "stateMutability": "view",
      "type": "function"
    },
    {
      "inputs": [
        {
          "internalType": "string",
          "name": "_title",
          "type": "string"
        },
        {
          "internalType": "string",
          "name": "_tenderType",
          "type": "string"
        },
        {
          "internalType": "uint256",
          "name": "_quantity",
          "type": "uint256"
        },
        {
          "internalType": "uint256",
          "name": "_budget",
          "type": "uint256"
        },
        {
          "internalType": "string",
          "name": "_description",
          "type": "string"
        },
        {
          "internalType": "uint256",
          "name": "_expiryDate",
          "type": "uint256"
        }
      ],
      "name": "createTender",
      "outputs": [],
      "stateMutability": "nonpayable",
      "type": "function"
    },
    {
      "inputs": [],
      "name": "getAllTenders",
      "outputs": [
        {
          "components": [
            {
              "internalType": "string",
              "name": "title",
              "type": "string"
            },
            {
              "internalType": "string",
              "name": "tenderType",
              "type": "string"
            },
            {
              "internalType": "uint256",
              "name": "quantity",
              "type": "uint256"
            },
            {
              "internalType": "uint256",
              "name": "budget",
              "type": "uint256"
            },
            {
              "internalType": "string",
              "name": "description",
              "type": "string"
            },
            {
              "internalType": "uint256",
              "name": "expiryDate",
              "type": "uint256"
            },
            {
              "internalType": "address",
              "name": "createdBy",
              "type": "address"
            }
          ],
          "internalType": "struct Tender.TenderDetails[]",
          "name": "",
          "type": "tuple[]"
        }
      ],
      "stateMutability": "view",
      "type": "function"
    },
    {
      "inputs": [
        {
          "internalType": "address",
          "name": "_user",
          "type": "address"
        }
      ],
      "name": "getTendersByUser",
      "outputs": [
        {
          "components": [
            {
              "internalType": "string",
              "name": "title",
              "type": "string"
            },
            {
              "internalType": "string",
              "name": "tenderType",
              "type": "string"
            },
            {
              "internalType": "uint256",
              "name": "quantity",
              "type": "uint256"
            },
            {
              "internalType": "uint256",
              "name": "budget",
              "type": "uint256"
            },
            {
              "internalType": "string",
              "name": "description",
              "type": "string"
            },
            {
              "internalType": "uint256",
              "name": "expiryDate",
              "type": "uint256"
            },
            {
              "internalType": "address",
              "name": "createdBy",
              "type": "address"
            }
          ],
          "internalType": "struct Tender.TenderDetails[]",
          "name": "",
          "type": "tuple[]"
        }
      ],
      "stateMutability": "view",
      "type": "function"
    },
    {
      "inputs": [],
      "name": "isOwner",
      "outputs": [
        {
          "internalType": "bool",
          "name": "",
          "type": "bool"
        }
      ],
      "stateMutability": "view",
      "type": "function"
    },
    {
      "inputs": [],
      "name": "owner",
      "outputs": [
        {
          "internalType": "address",
          "name": "",
          "type": "address"
        }
      ],
      "stateMutability": "view",
      "type": "function"
    },
    {
      "inputs": [
        {
          "internalType": "address",
          "name": "",
          "type": "address"
        },
        {
          "internalType": "uint256",
          "name": "",
          "type": "uint256"
        }
      ],
      "name": "userTenders",
      "outputs": [
        {
          "internalType": "string",
          "name": "title",
          "type": "string"
        },
        {
          "internalType": "string",
          "name": "tenderType",
          "type": "string"
        },
        {
          "internalType": "uint256",
          "name": "quantity",
          "type": "uint256"
        },
        {
          "internalType": "uint256",
          "name": "budget",
          "type": "uint256"
        },
        {
          "internalType": "string",
          "name": "description",
          "type": "string"
        },
        {
          "internalType": "uint256",
          "name": "expiryDate",
          "type": "uint256"
        },
        {
          "internalType": "address",
          "name": "createdBy",
          "type": "address"
        }
      ],
      "stateMutability": "view",
      "type": "function"
    }
  ],
  "bytecode": "0x608060405234801561001057600080fd5b50336000806101000a81548173ffffffffffffffffffffffffffffffffffffffff021916908373ffffffffffffffffffffffffffffffffffffffff1602179055506117a3806100606000396000f3fe608060405234801561001057600080fd5b506004361061007d5760003560e01c8063809a1ae91161005b578063809a1ae9146100f25780638b41afc8146101285780638da5cb5b146101585780638f32d59b146101765761007d565b80632358c046146100825780633168341e146100a057806358e10dbd146100d6575b600080fd5b61008a610194565b6040516100979190611014565b60405180910390f35b6100ba60048036038101906100b591906110a2565b61041d565b6040516100cd979695949392919061114a565b60405180910390f35b6100f060048036038101906100eb9190611303565b610634565b005b61010c600480360381019061010791906113e4565b610871565b60405161011f979695949392919061114a565b60405180910390f35b610142600480360381019061013d9190611411565b610a7b565b60405161014f9190611014565b60405180910390f35b610160610d43565b60405161016d919061143e565b60405180910390f35b61017e610d67565b60405161018b9190611474565b60405180910390f35b60606002805480602002602001604051908101604052809291908181526020016000905b8282101561041457838290600052602060002090600702016040518060e00160405290816000820180546101eb906114be565b80601f0160208091040260200160405190810160405280929190818152602001828054610217906114be565b80156102645780601f1061023957610100808354040283529160200191610264565b820191906000526020600020905b81548152906001019060200180831161024757829003601f168201915b5050505050815260200160018201805461027d906114be565b80601f01602080910402602001604051908101604052809291908181526020018280546102a9906114be565b80156102f65780601f106102cb576101008083540402835291602001916102f6565b820191906000526020600020905b8154815290600101906020018083116102d957829003601f168201915b505050505081526020016002820154815260200160038201548152602001600482018054610323906114be565b80601f016020809104026020016040519081016040528092919081815260200182805461034f906114be565b801561039c5780601f106103715761010080835404028352916020019161039c565b820191906000526020600020905b81548152906001019060200180831161037f57829003601f168201915b50505050508152602001600582015481526020016006820160009054906101000a900473ffffffffffffffffffffffffffffffffffffffff1673ffffffffffffffffffffffffffffffffffffffff1673ffffffffffffffffffffffffffffffffffffffff1681525050815260200190600101906101b8565b50505050905090565b6001602052816000526040600020818154811061043957600080fd5b90600052602060002090600702016000915091505080600001805461045d906114be565b80601f0160208091040260200160405190810160405280929190818152602001828054610489906114be565b80156104d65780601f106104ab576101008083540402835291602001916104d6565b820191906000526020600020905b8154815290600101906020018083116104b957829003601f168201915b5050505050908060010180546104eb906114be565b80601f0160208091040260200160405190810160405280929190818152602001828054610517906114be565b80156105645780601f1061053957610100808354040283529160200191610564565b820191906000526020600020905b81548152906001019060200180831161054757829003601f168201915b505050505090806002015490806003015490806004018054610585906114be565b80601f01602080910402602001604051908101604052809291908181526020018280546105b1906114be565b80156105fe5780601f106105d3576101008083540402835291602001916105fe565b820191906000526020600020905b8154815290600101906020018083116105e157829003601f168201915b5050505050908060050154908060060160009054906101000a900473ffffffffffffffffffffffffffffffffffffffff16905087565b60006040518060e001604052808881526020018781526020018681526020018581526020018481526020018381526020013373ffffffffffffffffffffffffffffffffffffffff168152509050600160003373ffffffffffffffffffffffffffffffffffffffff1673ffffffffffffffffffffffffffffffffffffffff16815260200190815260200160002081908060018154018082558091505060019003906000526020600020906007020160009091909190915060008201518160000190816106ff919061169b565b506020820151816001019081610715919061169b565b506040820151816002015560608201518160030155608082015181600401908161073f919061169b565b5060a0820151816005015560c08201518160060160006101000a81548173ffffffffffffffffffffffffffffffffffffffff021916908373ffffffffffffffffffffffffffffffffffffffff1602179055505050600281908060018154018082558091505060019003906000526020600020906007020160009091909190915060008201518160000190816107d4919061169b565b5060208201518160010190816107ea919061169b565b5060408201518160020155606082015181600301556080820151816004019081610814919061169b565b5060a0820151816005015560c08201518160060160006101000a81548173ffffffffffffffffffffffffffffffffffffffff021916908373ffffffffffffffffffffffffffffffffffffffff160217905550505050505050505050565b6002818154811061088157600080fd5b90600052602060002090600702016000915090508060000180546108a4906114be565b80601f01602080910402602001604051908101604052809291908181526020018280546108d0906114be565b801561091d5780601f106108f25761010080835404028352916020019161091d565b820191906000526020600020905b81548152906001019060200180831161090057829003601f168201915b505050505090806001018054610932906114be565b80601f016020809104026020016040519081016040528092919081815260200182805461095e906114be565b80156109ab5780601f10610980576101008083540402835291602001916109ab565b820191906000526020600020905b81548152906001019060200180831161098e57829003601f168201915b5050505050908060020154908060030154908060040180546109cc906114be565b80601f01602080910402602001604051908101604052809291908181526020018280546109f8906114be565b8015610a455780601f10610a1a57610100808354040283529160200191610a45565b820191906000526020600020905b815481529060010190602001808311610a2857829003601f168201915b5050505050908060050154908060060160009054906101000a900473ffffffffffffffffffffffffffffffffffffffff16905087565b6060600160008373ffffffffffffffffffffffffffffffffffffffff1673ffffffffffffffffffffffffffffffffffffffff168152602001908152602001600020805480602002602001604051908101604052809291908181526020016000905b82821015610d3857838290600052602060002090600702016040518060e0016040529081600082018054610b0f906114be565b80601f0160208091040260200160405190810160405280929190818152602001828054610b3b906114be565b8015610b885780601f10610b5d57610100808354040283529160200191610b88565b820191906000526020600020905b815481529060010190602001808311610b6b57829003601f168201915b50505050508152602001600182018054610ba1906114be565b80601f0160208091040260200160405190810160405280929190818152602001828054610bcd906114be565b8015610c1a5780601f10610bef57610100808354040283529160200191610c1a565b820191906000526020600020905b815481529060010190602001808311610bfd57829003601f168201915b505050505081526020016002820154815260200160038201548152602001600482018054610c47906114be565b80601f0160208091040260200160405190810160405280929190818152602001828054610c73906114be565b8015610cc05780601f10610c9557610100808354040283529160200191610cc0565b820191906000526020600020905b815481529060010190602001808311610ca357829003601f168201915b50505050508152602001600582015481526020016006820160009054906101000a900473ffffffffffffffffffffffffffffffffffffffff1673ffffffffffffffffffffffffffffffffffffffff1673ffffffffffffffffffffffffffffffffffffffff168152505081526020019060010190610adc565b505050509050919050565b60008054906101000a900473ffffffffffffffffffffffffffffffffffffffff1681565b60008060009054906101000a900473ffffffffffffffffffffffffffffffffffffffff1673ffffffffffffffffffffffffffffffffffffffff163373ffffffffffffffffffffffffffffffffffffffff1614905090565b600081519050919050565b600082825260208201905092915050565b6000819050602082019050919050565b600081519050919050565b600082825260208201905092915050565b60005b83811015610e24578082015181840152602081019050610e09565b60008484015250505050565b6000601f19601f8301169050919050565b6000610e4c82610dea565b610e568185610df5565b9350610e66818560208601610e06565b610e6f81610e30565b840191505092915050565b6000819050919050565b610e8d81610e7a565b82525050565b600073ffffffffffffffffffffffffffffffffffffffff82169050919050565b6000610ebe82610e93565b9050919050565b610ece81610eb3565b82525050565b600060e0830160008301518482036000860152610ef18282610e41565b91505060208301518482036020860152610f0b8282610e41565b9150506040830151610f206040860182610e84565b506060830151610f336060860182610e84565b5060808301518482036080860152610f4b8282610e41565b91505060a0830151610f6060a0860182610e84565b5060c0830151610f7360c0860182610ec5565b508091505092915050565b6000610f8a8383610ed4565b905092915050565b6000602082019050919050565b6000610faa82610dbe565b610fb48185610dc9565b935083602082028501610fc685610dda565b8060005b858110156110025784840389528151610fe38582610f7e565b9450610fee83610f92565b925060208a01995050600181019050610fca565b50829750879550505050505092915050565b6000602082019050818103600083015261102e8184610f9f565b905092915050565b6000604051905090565b600080fd5b600080fd5b61105381610eb3565b811461105e57600080fd5b50565b6000813590506110708161104a565b92915050565b61107f81610e7a565b811461108a57600080fd5b50565b60008135905061109c81611076565b92915050565b600080604083850312156110b9576110b8611040565b5b60006110c785828601611061565b92505060206110d88582860161108d565b9150509250929050565b600082825260208201905092915050565b60006110fe82610dea565b61110881856110e2565b9350611118818560208601610e06565b61112181610e30565b840191505092915050565b61113581610e7a565b82525050565b61114481610eb3565b82525050565b600060e0820190508181036000830152611164818a6110f3565b9050818103602083015261117881896110f3565b9050611187604083018861112c565b611194606083018761112c565b81810360808301526111a681866110f3565b90506111b560a083018561112c565b6111c260c083018461113b565b98975050505050505050565b600080fd5b600080fd5b7f4e487b7100000000000000000000000000000000000000000000000000000000600052604160045260246000fd5b61121082610e30565b810181811067ffffffffffffffff8211171561122f5761122e6111d8565b5b80604052505050565b6000611242611036565b905061124e8282611207565b919050565b600067ffffffffffffffff82111561126e5761126d6111d8565b5b61127782610e30565b9050602081019050919050565b82818337600083830152505050565b60006112a66112a184611253565b611238565b9050828152602081018484840111156112c2576112c16111d3565b5b6112cd848285611284565b509392505050565b600082601f8301126112ea576112e96111ce565b5b81356112fa848260208601611293565b91505092915050565b60008060008060008060c087890312156113205761131f611040565b5b600087013567ffffffffffffffff81111561133e5761133d611045565b5b61134a89828a016112d5565b965050602087013567ffffffffffffffff81111561136b5761136a611045565b5b61137789828a016112d5565b955050604061138889828a0161108d565b945050606061139989828a0161108d565b935050608087013567ffffffffffffffff8111156113ba576113b9611045565b5b6113c689828a016112d5565b92505060a06113d789828a0161108d565b9150509295509295509295565b6000602082840312156113fa576113f9611040565b5b60006114088482850161108d565b91505092915050565b60006020828403121561142757611426611040565b5b600061143584828501611061565b91505092915050565b6000602082019050611453600083018461113b565b92915050565b60008115159050919050565b61146e81611459565b82525050565b60006020820190506114896000830184611465565b92915050565b7f4e487b7100000000000000000000000000000000000000000000000000000000600052602260045260246000fd5b600060028204905060018216806114d657607f821691505b6020821081036114e9576114e861148f565b5b50919050565b60008190508160005260206000209050919050565b60006020601f8301049050919050565b600082821b905092915050565b6000600883026115517fffffffffffffffffffffffffffffffffffffffffffffffffffffffffffffffff82611514565b61155b8683611514565b95508019841693508086168417925050509392505050565b6000819050919050565b600061159861159361158e84610e7a565b611573565b610e7a565b9050919050565b6000819050919050565b6115b28361157d565b6115c66115be8261159f565b848454611521565b825550505050565b600090565b6115db6115ce565b6115e68184846115a9565b505050565b5b8181101561160a576115ff6000826115d3565b6001810190506115ec565b5050565b601f82111561164f57611620816114ef565b61162984611504565b81016020851015611638578190505b61164c61164485611504565b8301826115eb565b50505b505050565b600082821c905092915050565b600061167260001984600802611654565b1980831691505092915050565b600061168b8383611661565b9150826002028217905092915050565b6116a482610dea565b67ffffffffffffffff8111156116bd576116bc6111d8565b5b6116c782546114be565b6116d282828561160e565b600060209050601f83116001811461170557600084156116f3578287015190505b6116fd858261167f565b865550611765565b601f198416611713866114ef565b60005b8281101561173b57848901518255600182019150602085019450602081019050611716565b868310156117585784890151611754601f891682611661565b8355505b6001600288020188555050505b50505050505056fea264697066735822122091a60f464bc964e6a3e9f835b2afb8f484bf0fe7b59daa564188932026a0b00e64736f6c63430008180033",
  "linkReferences": {},
  "deployedLinkReferences": {}
}